:100000000C949A010C94C2010C94C2010C94AB079D
:100010000C94AB070C94AB070C94C2010C94C20176
:100020000C94C2010C94C2010C94C2010C94C20144
:100030000C94C2010C94C2010C94C2010C94C20134
:100040000C941D0F0C94C2010C94BE0D0C94980DD1
:100050000C94C2010C94C2010C94C2010C94C20114
:100060000C94310B0C94C2014D5055363035302074
:10007000636F6E6E65637465640054657374696E56
:10008000672064657669636520636F6E6E6563746F
:10009000696F6E732E2E2E000000000024002700D2
:1000A0002A000102040810204080010204081020E8
:1000B00001020408102004040404040404040202DD
:1000C00002020202030303030303696E6974696198
:1000D0006C697A6174696F6E206661696C65642110
:1000E00000696E697469616C697A6174696F6E2008
:1000F000646F6E652E00496E697469616C697A6916
:100100006E6720534420636172642E2E2E004C6172
:1001100073742073746F7265642066616374206900
:100120006E6465783A2000496E697469616C697A19
:10013000696E672049324320646576696365732E72
:100140002E2E00496E7469616C697A696E6720654C
:100150006D6963206465766963652E2E2E00444EBA
:10016000452E2046696C6520637265617465642E56
:100170000047657474696E672066696C6520746FEA
:1001800020626520706C617965643A200055706466
:100190006174696E67206661637420496E64657876
:1001A0003A20004F70656E696E672066696C653A2B
:1001B0002000466163743A20005468726F77206FA4
:1001C00072207368616B652064657465637465642F
:1001D0000044617461207061636B65742073656EA7
:1001E00064206572726F7220283229004461746144
:1001F000207061636B65742073656E642065727234
:100200006F72202831290041542B43495053454EE9
:10021000443D25642C2575004661696C6564207435
:100220006F20777269746520746F20736F636B65DC
:10023000740041542B434950434C4F53453D256472
:1002400000446973636F6E6E656374696E67200046
:10025000456E6420746167206E6F7420666F756EE2
:1002600064004E6F2074616720666F756E64004194
:10027000542B434950535441545553002B43495038
:100280005354415455533A25642C003E3E3E20546D
:10029000494D454F5554203E3E3E0000000000238E
:1002A000002600290000000000250028002B000087
:1002B0000000080002010000030407000000000025
:1002C0000000007C3C3E5E2B3D3F2F5B5D3B2C2ABB
:1002D000225C004E6F20736F636B657420617661E2
:1002E000696C61626C650041542B43495053544121
:1002F00052543D25642C22544350222C2225732233
:100300002C257500436F6E6E656374696E6720748B
:100310006F0054494D454F55543A0054616720438E
:100320004C4F534544206E6F7420666F756E6400A9
:10033000192CF72B11241FBECFEFD8E0DEBFCDBFA5
:1003400012E0A0E0B1E0E6EAF6E602C005900D9208
:10035000A636B107D9F727E0A6E6B2E001C01D92A4
:10036000A730B207E1F711E0C9E9D1E004C0219755
:10037000FE010E94262DC839D107C9F70E944C24DE
:100380000C9446330C940000CF93DF931F92CDB7AB
:10039000DEB76983DC01ED91FC910280F381E02DF1
:1003A00041E050E0BE016F5F7F4F09950F90DF91F4
:1003B000CF91089520910C0330910D032817390730
:1003C00071F490910B0380910A03981741F0E0912A
:1003D0000B03F0E0E653FD4F808190E008958FEF2E
:1003E0009FEF089508951F93CF93DF93DC015C96F0
:1003F0002D913C915D972115310539F481E090E014
:1004000013969C938E9312973DC05196ED91FC915B
:10041000529750969C915097892F80951FB75E9662
:100420004C915E9741FB772770F941FD6095F894F8
:100430004081772311F0492B01C048234083E90113
:100440002197F1F748E0508160FF02C0592B01C0AD
:1004500058235083E9012197F1F76695415099F7A8
:10046000772321F090818923808303C08081982B9A
:1004700090831FBF5C968D919C915D970197F1F7DA
:1004800021E030E0C901DF91CF911F9108952091C3
:100490000C0330910D032817390771F480910A037A
:1004A00020910B0390E0805C9F4F821B910960E4D8
:1004B00070E00E94FE2C089580E090E00895209165
:1004C0000C0330910D0328173907B9F490910B03F1
:1004D00080910A03981789F0E0910B03F0E0E6534E
:1004E000FD4F808120910B0330E02F5F3F4F2F7332
:1004F000332720930B0390E008958FEF9FEF08952B
:1005000021E0FC0184858F3F09F420E0822F0895CB
:10051000CF93DF93EC01E881F9810480F581E02D30
:10052000CE010995892B41F0E881F9810680F78198
:10053000E02DCE010995EFCFDF91CF910895CF93B4
:10054000DF931F92CDB7DEB76983DC01ED91FC919B
:100550000280F381E02D41E050E0BE016F5F7F4FEC
:1005600009950F90DF91CF91089585ED8093BC00A0
:100570008091BC0084FDFCCF1092620308954091ED
:100580009F02262F30E0240F311D21323105DCF48B
:10059000209162032430C9F4FC0180E090E08617CA
:1005A00058F430919F022191DC01A358BD4FA30F55
:1005B000B11D2C930196F3CF80919F02680F609339
:1005C0009F0280E0089581E0089582E008950895F3
:1005D000E091670280916602E81730F4F0E0E15F95
:1005E000FC4F808190E008958FEF9FEF08959091E8
:1005F000670280916602981750F4E92FF0E0E15FFE
:10060000FC4F208130E09F5F9093670202C02FEF84
:100610003FEFC90108958091660290E02091670242
:10062000821B91090895CF92DF92EF92FF920F9370
:100630001F93CF93DF937C01262F972F8A01809100
:100640006303882391F0C62FD72F6E01C40ED51EE9
:10065000CC15DD0571F06991D701ED91FC91019008
:10066000F081E02DC7010995F3CF642F822F0E94FE
:10067000BF02C801DF91CF911F910F91FF90EF90C2
:10068000DF90CF900895CF93DF931F92CDB7DEB761
:100690006983209163032223D1F0209186032032C5
:1006A00040F021E030E0FC013383228380E090E0E1
:1006B00015C080916403E82FF0E0EB59FC4F99815D
:1006C00090838F5F809364038093860305C061E00D
:1006D000CE0101960E94BF0281E090E00F90DF9171
:1006E000CF910895CF93DF93EC01898D9A8D009778
:1006F00039F481E090E09B838A8380E090E00BC036
:10070000FC01138212820E940D13E98DFA8D228161
:100710003381232B71F7DF91CF9108956F927F92F0
:100720008F929F92AF92BF92CF92DF92EF92FF9201
:100730000F931F93CF93DF9300D0CDB7DEB77C012B
:100740008A01DC01ED91FC910480F581E02D698343
:100750007A83099569817A81892B19F48FEF9FEF4C
:1007600059C0F70194858091FC06981351C080917F
:10077000FD069091FE06A091FF06B091000768016A
:10078000E12CF12C8C159D05AE05BF050CF48C01F8
:100790003B016B01C00ED11EE0900107F0900207F3
:1007A0006C147D0499F10E94110F4B015C01D7017B
:1007B000ED91FC910680F781E02DC701099597FF27
:1007C0000EC00E94110FDC01CB0188199909AA09FA
:1007D000BB09883E9340A105B10548F3BFCFD301C3
:1007E0008D933D018091FD069091FE06A091FF063C
:1007F000B09100070197A109B1098093FD0690937C
:10080000FE06A093FF06B0930007CACFC80102C03E
:1008100080E090E00F900F90DF91CF911F910F91AA
:10082000FF90EF90DF90CF90BF90AF909F908F9010
:100830007F906F9008958F929F92AF92BF92CF92C8
:10084000DF92FF920F931F93CF93DF934091FD06AA
:100850005091FE066091FF06709100071416150670
:100860001606170644F49091FC06981711F09111A2
:1008700002C0CA01F3C0F82EC0910107D09102074F
:10088000E881F9810480F581E02DCE010995892B5D
:1008900009F045C080E090E0E1C02115310589F004
:1008A000EAE0F2E040E050E0B1906B01C40ED51EEA
:1008B000D601DC90BD1409F452C04217530709F069
:1008C0004AC00E94110F688779878A879B87E881D1
:1008D000F9810680F781E02DCE01099597FD22C0B0
:1008E000F801E65FFD4F2081022E000C330B8217CA
:1008F0009307E1F10115110521F36BE072E0980116
:1009000021503109F901E65FFD4F4081042E000CB2
:10091000550B8417950709F221153105E1F400E024
:1009200010E0CFCF0E94110F88849984AA84BB84E1
:10093000DC01CB0188199909AA09BB098C809D802B
:10094000AE80BF8088159905AA05BB0508F4BFCF06
:100950008FEF9FEF13C06F5F7F4F8901D0CF4F5F45
:100960005F4F4217530708F49FCFA7CF0F5F1F4F6A
:100970000530110509F0A5CF80E090E0892B09F042
:1009800089CFCE010E94DE1F6093FC06E881F981C9
:100990000680F781E02DCE010995CE010E94DE1F71
:1009A0006093FD067093FE068093FF069093000708
:1009B000E881F9810680F781E02DCE010995CE010D
:1009C0000E94DE1F6093C602E881F9810680F781EC
:1009D000E02DCE010995CE010E94DE1F6093C70273
:1009E000E881F9810680F781E02DCE010995CE01DD
:1009F0000E94DE1F6093C802E881F9810680F781BA
:100A0000E02DCE010995CE010E94DE1F6093C90240
:100A1000E881F9810680F781E02DCE010995E88112
:100A2000F9810680F781E02DCE010995CE010E9463
:100A3000DE1F7093C5026093C402E881F9810680CD
:100A4000F781E02DCE0109958091FC068F1511F0FC
:100A5000F11020CF8091FD069091FE06DF91CF919D
:100A60001F910F91FF90DF90CF90BF90AF909F901C
:100A70008F900895FC0184858F3F21F00E941B0414
:100A800097FF02C080E090E008950F931F93CF93EB
:100A9000DF9300D0CDB7DEB78C01DC01ED91FC9186
:100AA0000480F581E02D0995892B29F11982F8013F
:100AB00084859091FC06891309C09E012F5F3F4FEA
:100AC00041E0BE016E5F7F4F0E94F2228981882340
:100AD00079F0D8011C96EC911C97F0E0EE0FFF1F07
:100AE000EC5FFE4F8FEF9FEF918380831C968C937A
:100AF0008A8190E002C08FEF9FEF0F900F90DF91FF
:100B0000CF911F910F9108950F931F93CF93DF9370
:100B100000D0CDB7DEB78C01DC01ED91FC910480F3
:100B2000F581E02D0995892B29F11982F801848539
:100B30009091FC06891309C09E012F5F3F4F40E052
:100B4000BE016E5F7F4F0E94F2228981882379F077
:100B5000D8011C96EC911C97F0E0EE0FFF1FEC5FA4
:100B6000FE4F8FEF9FEF918380831C968C938A8139
:100B700090E002C08FEF9FEF0F900F90DF91CF9129
:100B80001F910F9108950C94CA23EF92FF920F9337
:100B90001F93CF93DF93CDB7DEB762970FB6F8946C
:100BA000DEBF0FBECDBF7C01FB0185811F928F93FD
:100BB00084811F928F9383811F928F9382811F92D2
:100BC0008F9320E132E03F932F938E010F5F1F4FF1
:100BD0001F930F93498B5A8B0E94662F49895A891C
:100BE000B801C7010E94CA230FB6F894DEBF0FBE3A
:100BF000CDBF62960FB6F894DEBF0FBECDBFDF91BA
:100C0000CF911F910F91FF90EF900895EF92FF9277
:100C10000F931F93CF93DF93EC017B018A011B821B
:100C20001A8288EE93E0A0E0B0E08C839D83AE83CF
:100C3000BF8382E291E0998388838DE190E00E94F6
:100C40002C2D9A8F898F009779F02DE1F701DC0127
:100C500001900D922A95E1F74CE050E0B801CE01E9
:100C60000C960E94572F188EDF91CF911F910F91F4
:100C7000FF90EF9008952F923F924F925F926F9264
:100C80007F928F929F92AF92BF92CF92DF92EF921C
:100C9000FF920F931F93CF93DF9300D0CDB7DEB7B2
:100CA000FC018581882309F4D9C0848180FFD6C0E6
:100CB00021E02A83438954896589768982859385D1
:100CC000A485B585481759076A077B0709F41A8276
:100CD0006F013A81832F90E0DE0111964D013F01B3
:100CE000B6E06B0E711C892B09F47DC0D6011A96F3
:100CF0004D915D916D917C911D975A01B1E0BB22A0
:100D0000F60125811A012B0189E056944794379406
:100D100027948A95D1F7838D948D223061F4FC015C
:100D2000828D938DA48DB58DBC01CD01620D731D97
:100D3000841D951D45C0DC0114961C911150122193
:100D4000A114B104D1F4111118C0452B462B472B27
:100D500051F4F6018789908DA18DB28D868397839A
:100D6000A087B1870AC0468157816085718593014C
:100D70000E94E211882309F471C0F601238D348D9D
:100D800086819781A085B1850297A109B109AC013F
:100D9000BD01F901058404C0440F551F661F771F6C
:100DA0000A94D2F786859785A089B189840F951F0B
:100DB000A61FB71FBC01CD01610F711D811D911DC3
:100DC000D60114962C9126FF14C0009100011091B9
:100DD0000101209102013091030160177107820720
:100DE000930751F506C0FA81FF23C1F1898190E094
:100DF00037C040E00E94F910882381F1F501E957DE
:100E0000FC4FD401CF010196E817F90719F02191A1
:100E10002D93FACFEFEF8E1A9E0AF6018285938505
:100E2000A485B5850196A11DB11D82879387A487EE
:100E3000B58780E090E057CF740101E010E09501A4
:100E4000AB01BC0180918705909188050E94021E2C
:100E5000882321F0BFEF8B1A9B0ADFCF8FEF9FEF24
:100E60000F900F90DF91CF911F910F91FF90EF9016
:100E7000DF90CF90BF90AF909F908F907F906F90BA
:100E80005F904F903F902F9008950F931F93CF93B3
:100E9000DF93EC01162F042F1B821A8288EE93E059
:100EA000A0E0B0E08C839D83AE83BF838EE891E0A9
:100EB000998388831F8A1E8A198E188E1B8E1A8E1C
:100EC0001D8E1C8E6E8D6E7F20FB61F96E8F669578
:100ED000617081E06827842F0E94F00D61E0802F0F
:100EE0000E943C0E402F50E0FA01EE55FF4FE49176
:100EF000E88BFA01EA54FF4FE491F0E0EE0FFF1F98
:100F0000EB55FD4F859194919A8B898B60E0812FF1
:100F10000E943C0E8E8D81FD04C061E0812F0E94F5
:100F2000F00D1C87612F70E0FB01EE55FF4FE4913F
:100F3000ED87FB01EA54FF4FE491F0E0EE0FFF1F55
:100F4000E556FD4F859194919F878E87DF91CF91D4
:100F50001F910F9108951F920F920FB60F921124B7
:100F60002F933F934F935F936F937F938F939F93B1
:100F7000AF93BF93EF93FF93E0910C03F0910D03B8
:100F8000309709F451C0968DA685B785858591FF68
:100F900004C09C91892329F447C09C91892309F0BE
:100FA00043C0A389B4899C918589809589238C93BA
:100FB000868997890197F1F7608D718DA685B78530
:100FC000558538E020E0CB010197F1F7822F90E0C2
:100FD00095958795282F4C91452309F0206831502D
:100FE00091F7868D81FD209580910A0390E001960E
:100FF0008F73992730910B03381749F0A0910A039A
:10100000B0E0A653BD4F2C9380930A0303C0868D96
:101010008160868F828D938D0197F1F7A389B489C2
:101020009C918589892B8C93FF91EF91BF91AF9112
:101030009F918F917F916F915F914F913F912F91F0
:101040000F900FBE0F901F901895E0910C03F09138
:101050000D03E817F90769F4A389B4899C91858980
:10106000809589238C9310920D0310920C0381E0DC
:10107000089580E00895CF93DF93EC018A8D9B8DD6
:10108000892BF1F080910C0390910D038C179D0733
:10109000B9F0009711F00E9425088E8D8E7F8E8FFB
:1010A00010920A0310920B03D0930D03C0930C030C
:1010B000EB89FC8990818D89892B808381E001C037
:1010C00080E0DF91CF9108952F923F924F925F92EF
:1010D0006F927F928F929F92AF92BF92CF92DF9248
:1010E000EF92FF920F931F93CF93DF9300D01F9245
:1010F000CDB7DEB76C011B014983809198069091B2
:10110000990690939D0680939C060E94110F2B01D7
:101110003C018FEF9FEF9B838A830D2C000CEE0820
:10112000FF0800910107109102070E94110FDC01D6
:10113000CB0184199509A609B7098C159D05AE0543
:10114000BF0508F05DC08A819B81019609F058C0F7
:10115000D801ED91FC910480F581E02DC80109953D
:10116000892B19F3D801ED91FC910680F781E02DD0
:10117000C8010995E0919C06F0919D0680838091BD
:101180009C0690919D06019690939D0680939C06E7
:1011900020919A0630919B068217930740F0809128
:1011A00098069091990690939D0680939C06211431
:1011B000310449F0C1010E945D20882321F0E5E05F
:1011C000F0E0FB83EA832981222309F4AECF82E198
:1011D000882E81E0982EA12CB12CD4018D919D9167
:1011E0004D010E945D20811108C0BFEFAB1ABB0A00
:1011F000E5E0AE16B10489F798CFBB82AA8295CFFD
:101200000E94110FDC01CB0184199509A609B709C9
:101210008C159D05AE05BF0560F06CE172E089E8B4
:1012200095E00E94B8226BE872E089E895E00E94A0
:10123000DE228A819B810F900F900F90DF91CF91DA
:101240001F910F91FF90EF90DF90CF90BF90AF90E4
:101250009F908F907F906F905F904F903F902F90D6
:101260000895EF92FF920F931F93CF93DF93CDB723
:10127000DEB76E970FB6F894DEBF0FBECDBFFC0190
:1012800084858F3F09F483C08F010E941B04892B42
:1012900011F094E07DC0D8011C968C911F928F9321
:1012A0008CE792E09F938F93FE0131967F01FF932D
:1012B000EF930E94F32F1D8A0E9491206FE672E047
:1012C00080910107909102070E94DE2241E0B70160
:1012D00088EE93E00E9464080F900F900F900F909B
:1012E0000F900F908530910509F042C080919806CB
:1012F0009091990690939D0680939C064091960646
:10130000509197064F5F5F4F60E070E00E943E2F64
:1013100041E06EE072E084EF91E00E94640805977E
:10132000F1F4609198067091990680919C069091D5
:101330009D06861B970B01978A30910510F4AC012E
:1013400002C049E050E0CE0145960E94572F41E08F
:1013500060E070E080ED97E00E9464089ACF6CE155
:1013600072E089E895E00E94B82260E572E00AC068
:10137000059798F06CE172E089E895E00E94B82248
:1013800062E672E089E895E00E94DE2206C090E005
:1013900081E09430A1F080E012C090E0D8011C966A
:1013A000EC911C97F0E0EE0FFF1FEC5FFE4F2FEF6C
:1013B0003FEF318320838FEF1C968C93E9CF6E969D
:1013C0000FB6F894DEBF0FBECDBFDF91CF911F9156
:1013D0000F91FF90EF9008958F929F92AF92BF92DE
:1013E000CF92DF92EF92FF920F931F93CF93DF93F1
:1013F000CDB7DEB764970FB6F894DEBF0FBECDBF92
:101400007C014B018A01DC011C968C91843018F41C
:101410004115510531F481E090E0F7019383828317
:1014200085C01F934F931F928F9387E092E09F9305
:101430008F939E012F5F3F4F59013F932F930E943F
:10144000F32FC0900107D0900207B501C6010E949A
:10145000312240E067E272E088EE93E00E94640887
:101460000FB6F894DEBF0FBECDBF059749F06CE113
:1014700072E089E895E00E94B8226CEE71E01CC031
:10148000D601ED91FC910280F381E02DA801B40119
:10149000C601099541E060E070E080ED97E00E94B0
:1014A0006408039709F445C06CE172E089E895E0AF
:1014B0000E94B82261ED71E089E895E00E94DE2289
:1014C00081E090E0F701938382836CE172E089E828
:1014D00095E00E94B82268E172E089E895E00E94F8
:1014E000BA2265E272E089E895E00E94B822D7014D
:1014F0001C964C9150E060E070E02AE089E895E0AD
:101500000E94E82163E672E089E895E00E943724B2
:1015100060EA7FE080E090E00E94D70ED701ED9175
:10152000FC910288F389E02DC701099580E090E0E5
:1015300001C0C80164960FB6F894DEBF0FBECDBFE0
:10154000DF91CF911F910F91FF90EF90DF90CF909F
:10155000BF90AF909F908F900895CF93DF93CDB7BA
:10156000DEB7C85CD1090FB6F894DEBF0FBECDBFA1
:101570009E012F523F4FC353DF4F48815981CD5CAD
:10158000D04068EC70E0CE0101960E9416300E94B7
:101590009120BE016F5F7F4F8091010790910207FC
:1015A0000E94312241E060E070E0C153DF4F88814A
:1015B0009981CF5CD0400E946408C853DF4F0FB6BA
:1015C000F894DEBF0FBECDBFDF91CF910895CF93CA
:1015D000DF93FC0124852F3F09F440C0EC016CE14E
:1015E00072E089E895E00E94B82261E472E089E83F
:1015F00095E00E94BA2265E272E089E895E00E94D7
:10160000B8224C8550E060E070E02AE089E895E07F
:101610000E94E82163E672E089E895E00E943724A1
:101620008C851F928F938FE08F9380EA8F9382E354
:1016300092E09F938F930E94AD0AEC85F0E0EE0F4D
:10164000FF1FEC5FFE4F8FEF9FEF918380838C87AE
:101650000F900F900F900F900F900F90DF91CF9100
:1016600008951F920F920FB60F9211242F933F935C
:101670004F935F936F937F938F939F93AF93BF939A
:10168000EF93FF938091B900887F803609F49CC066
:1016900068F5883209F45BC090F4803109F454C0D5
:1016A00038F4882309F4F6C0883009F44DC0F6C038
:1016B000883109F44CC0803209F45DC0EFC0803439
:1016C00009F468C048F4803309F455C0883309F040
:1016D000E5C080936003D8C0803509F44FC08835D9
:1016E00009F45DC0883409F0D9C0D6C0883909F43E
:1016F000C7C0A8F4883709F467C038F4883609F4FD
:1017000063C0803709F460C0C9C0883809F4B8C024
:10171000803909F45FC0803809F0C0C05BC0803BED
:1017200009F486C038F4803A09F466C0883A09F4AE
:101730007FC0B4C0803C09F4A7C0883C09F4A4C0B1
:10174000883B09F48AC0AAC080913D0310C09091E3
:101750005F0380915E03981770F5E0915F0381E06D
:101760008E0F80935F03F0E0E25CFC4F80818093FA
:10177000BB0085EC86C0809360038EC0E0915F0360
:1017800081E08E0F80935F038091BB00F0E0E25C0C
:10179000FC4F808390915F0380915E036EC0E09167
:1017A0005F0381E08E0F80935F038091BB00F0E0C8
:1017B000E25CFC4F80838091610381116DC081E008
:1017C00080933C0384EA61C083E0809362031092BB
:1017D000C302CFCF8091C302803208F051C0E091A4
:1017E000C30281E08E0F8093C3028091BB00F0E0C2
:1017F000ED55FD4F8083BDCF85EC8093BC001092EA
:1018000062038091C302803230F4E091C302F0E0C1
:10181000ED55FD4F10826091C30270E0E091A1028E
:10182000F091A20283EA92E009951092C30236C0B9
:1018300084E0809362031092A00210929F02E091D4
:101840009D02F0919E02099580919F02811105C031
:1018500081E080939F0210927D02E091A00281E0DE
:101860008E0F8093A002F0E0E358FD4F80818093BB
:10187000BB009091A00280919F02981708F479CF45
:1018800085E88093BC000AC085EC8093BC00109270
:10189000620304C0109260030E94B502FF91EF91B1
:1018A000BF91AF919F918F917F916F915F914F9178
:1018B0003F912F910F900FBE0F901F901895FC0134
:1018C000918D828D981761F0828DDF01A80FB11D77
:1018D0005D968C91928D9F5F9F73928F90E008959B
:1018E0008FEF9FEF0895FC01918D828D981731F055
:1018F000828DE80FF11D858D90E008958FEF9FEFA9
:101900000895FC01918D228D892F90E0805C9F4F7E
:10191000821B91098F739927089589E895E00E94A9
:10192000810C21E0892B09F420E0822F0895FC012D
:10193000848DDF01A80FB11DA35ABF4F2C91848D58
:1019400090E001968F739927848FA689B7892C938D
:10195000A089B1898C9180648C93938D848D981328
:1019600006C00288F389E02D80818F7D80830895F1
:10197000EF92FF920F931F93CF93DF93EC0181E0DF
:10198000888F9B8D8C8D981305C0E889F98980819B
:1019900085FD24C0F62E0B8D10E00F5F1F4F0F73D7
:1019A0001127E02E8C8DE8120CC00FB607FCFACF81
:1019B000E889F989808185FFF5CFCE010E94970CD7
:1019C000F1CF8B8DFE01E80FF11DE35AFF4FF0823E
:1019D0000B8FEA89FB898081806207C0EE89FF89CD
:1019E0006083E889F98980818064808381E090E068
:1019F000DF91CF911F910F91FF90EF900895CF93BA
:101A0000DF93EC01888D8823C9F0EA89FB89808106
:101A100085FD05C0A889B9898C9186FD0FC00FB6D8
:101A200007FCF5CF808185FFF2CFA889B9898C9119
:101A300085FFEDCFCE010E94970CE7CFDF91CF91CC
:101A4000089580E090E0892B29F00E948D0C81118F
:101A50000C94000008953FB7F8948091380390915A
:101A60003903A0913A03B0913B0326B5A89B05C06A
:101A70002F3F19F00196A11DB11D3FBFBA2FA92F0D
:101A8000982F8827820F911DA11DB11DBC01CD018A
:101A900042E0660F771F881F991F4A95D1F7089576
:101AA0008F929F92AF92BF92CF92DF92EF92FF926E
:101AB0000F931F93CF93DF937C018B016C0182E026
:101AC000C80ED11C4701E5E08E0E911CC0E0D0E0AD
:101AD000F60141916F0150E060E070E02AE0C8013A
:101AE0000E94E8215C016EE2C8010E9464228A0D16
:101AF0009B1DC80FD91FC814D90451F7F7014581A0
:101B000050E060E070E02AE0C8010E94E8218C0FFC
:101B10009D1FDF91CF911F910F91FF90EF90DF906C
:101B2000CF90BF90AF909F908F9008950E94232FE9
:101B30001F920F920FB60F9211242F933F934F9342
:101B40005F936F937F938F939F93AF93BF93EF9325
:101B5000FF9389E895E00E94970CFF91EF91BF9168
:101B6000AF919F918F917F916F915F914F913F9135
:101B70002F910F900FBE0F901F9018951F920F92EC
:101B80000FB60F9211242F938F939F93EF93FF9390
:101B9000E0919905F0919A058081E0919F05F0917F
:101BA000A00582FD12C090818091A2058F5F8F7386
:101BB0002091A305821751F0E091A205F0E0E757CC
:101BC000FA4F958F8093A20501C08081FF91EF911C
:101BD0009F918F912F910F900FBE0F901F9018958E
:101BE00090E0FC01E155FD4F3491FC01EE55FF4FB3
:101BF0002491FC01EA54FF4FE491EE2309F43BC029
:101C0000332339F1333091F038F43130A9F03230E8
:101C100001F584B58F7D12C0373091F03830A1F0D6
:101C20003430B9F4809180008F7D03C080918000B2
:101C30008F77809380000DC084B58F7784BD09C0F5
:101C40008091B0008F7703C08091B0008F7D80932A
:101C5000B000F0E0EE0FFF1FEB55FD4FA591B491E2
:101C60008FB7F894EC91611103C020952E2301C029
:101C70002E2B2C938FBF0895CF93DF9390E0FC0120
:101C8000EE55FF4F2491FC01EA54FF4F84918823C5
:101C900061F190E0880F991FFC01E856FF4FC59154
:101CA000D491FC01EB55FD4FA591B491611109C090
:101CB0009FB7F8948881209582238883EC912E2306
:101CC0000BC0623061F49FB7F8943881822F809501
:101CD00083238883EC912E2B2C939FBF06C08FB754
:101CE000F894E8812E2B28838FBFDF91CF91089540
:101CF0001F93CF93DF93182FEB0161E00E943C0EFE
:101D0000209711F460E004C0CF3FD10539F461E0C1
:101D1000812FDF91CF911F910C94F00DE12FF0E016
:101D2000E155FD4FE491E330F9F048F4E130B9F0CA
:101D3000E230A1F584B5806284BDC8BD34C0E7300F
:101D4000E9F0E83019F1E43049F5809180008062D3
:101D500080938000D0938B00C0938A0024C084B508
:101D6000806884BDC7BD1FC080918000806880935B
:101D70008000D0938900C093880015C08091B00086
:101D800080688093B000C093B3000DC08091B00014
:101D900080628093B000C093B40005C0C038D10504
:101DA0000CF0B5CFAFCFDF91CF911F9108958F92F7
:101DB0009F92AF92BF92CF92DF92EF92FF926B0110
:101DC0007C010E942B0D4B015C01C114D104E10484
:101DD000F104F1F00E942B0DDC01CB018819990967
:101DE000AA09BB09883E9340A105B10570F321E023
:101DF000C21AD108E108F10888EE880E83E0981E27
:101E0000A11CB11CC114D104E104F10419F7DDCF08
:101E1000FF90EF90DF90CF90BF90AF909F908F900A
:101E200008952FB7F8946091340370913503809131
:101E30003603909137032FBF08951F920F920FB66C
:101E40000F9211242F933F938F939F93AF93BF9340
:101E50008091340390913503A0913603B0913703FC
:101E60003091330323E0230F2D3720F40196A11D79
:101E7000B11D05C026E8230F0296A11DB11D2093B8
:101E800033038093340390933503A0933603B093C8
:101E900037038091380390913903A0913A03B091B0
:101EA0003B030196A11DB11D809338039093390324
:101EB000A0933A03B0933B03BF91AF919F918F9151
:101EC0003F912F910F900FBE0F901F9018952F925A
:101ED0003F924F925F926F927F928F929F92AF92BA
:101EE000BF92CF92DF92EF92FF920F931F93CF9307
:101EF000DF93CDB7DEB727970FB6F894DEBF0FBEDE
:101F0000CDBFE82E6B834F8369010E94110F4B01F7
:101F10005C016E2C660CF12C1E82772473945F8119
:101F2000452F50E05D834C831801412C512C4F818B
:101F3000F41608F099C070926303E0928503109242
:101F40006403109286036B8181E796E00E9443034D
:101F50000E94E11670926303E0928503109264037D
:101F600010928603809162038111FCCF2C813D8108
:101F70002F1931092132310514F020E230E02132ED
:101F800008F020E270926203709261038FEF8093F9
:101F9000600310925F03820F80935E0370923D0393
:101FA00080913D03862980933D0380913C038130DD
:101FB00071F410923C0380913D038093BB008091AB
:101FC000BC0083FDF8CF95EC9093BC0003C0E5EE18
:101FD000E093BC00809162038130E1F380915F0364
:101FE000821710F420915F03AEE3B3E0EFE0F3E07B
:101FF0008E2F4FE053E0841B821718F48D9181934C
:10200000F7CF10926702209366029091660280914A
:102010006702981719F10115110599F4A6012E818F
:10202000420F511D27FD5A955A83498381E796E057
:102030000E94F702E981FA8180832E812F5F2E832F
:10204000E4CF0E94110FDC01CB0188199909AA097C
:10205000BB0982159305A405B50500F38F81813274
:1020600008F080E2F80E63CFFE8001151105D9F06B
:102070000E94110FDC01CB0188199909AA09BB093B
:1020800020E030E080179107A207B30760F05F817E
:10209000252F30E08F2D0F2C000C990B8217930702
:1020A00014F4FF24FA948F2D27960FB6F894DEBF10
:1020B0000FBECDBFDF91CF911F910F91FF90EF9099
:1020C000DF90CF90BF90AF909F908F907F906F9058
:1020D0005F904F903F902F900895BF92CF92DF92E4
:1020E000EF92FF920F931F93CF93DF9300D0CDB762
:1020F000DEB7F82EE62EC42EB22ED02E08EE13E058
:102100009E012E5F3F4F41E00E94670F882349F1F7
:102110004C2D50E04B1951094F5F5F4F21E030E0EB
:1021200002C0220F331FBA94E2F721503109042E66
:1021300001C0220F0A94EAF78D2D01C0880F4A953D
:10214000EAF7322F30959A8193232823292B2A836B
:102150002983AE014F5F5F4F6E2D8F2D0E94C01FF0
:1021600001C080E00F900F90DF91CF911F910F91F0
:10217000FF90EF90DF90CF90BF90089580910E0375
:102180008823A9F140910001509101016091020161
:102190007091030127E833E08091870590918805CD
:1021A0000E94961E811102C080E0089540912F0385
:1021B0005091300360913103709132034115510504
:1021C0006105710591F027E833E0809187059091D2
:1021D00088050E94961E882339F310922F031092CF
:1021E0003003109231031092320310920E0381E0FB
:1021F00008958F929F92AF92BF92EF92FF920F93AA
:102200001F93CF934B015C01C42F809100019091EB
:102210000101A0910201B091030188159905AA0559
:10222000BB0501F10E94BE10811102C080E020C0F8
:1022300087E8E82E83E0F82E00E012E020E030E0AE
:10224000B501A40180918705909188050E94021E26
:10225000882361F38092000190920101A092020113
:10226000B092030180910E03C82BC0930E0381E04E
:10227000CF911F910F91FF90EF90BF90AF909F90E3
:102280008F9008954F925F926F927F928F929F925C
:10229000AF92BF92CF92DF92EF92FF920F931F9374
:1022A000CF93DF93EC016A017B01280139014230B1
:1022B00051056105710510F480E073C089859A8528
:1022C000AB85BC850196A11DB11D84179507A60796
:1022D000B70790F38B889C88AD88BE888F89803142
:1022E00029F4BB27AF2D9E2D8D2D09C0DB01CA011E
:1022F00047E0B695A795979587954A95D1F7880EAB
:10230000991EAA1EBB1E8091000190910101A0910F
:102310000201B091030188169906AA06BB0679F45A
:102320008F898031A1F4DD24EE24FF24C601880FBB
:10233000991FFC01E957FC4F5182408219C040E0CF
:10234000C501B4010E94F9108111EACFB5CFE8941C
:10235000C7F8DD24EE24FF24C601880F991F880FDB
:10236000991FFC01E957FC4F4082518262827382BF
:1023700080910E03816080930E038A89823080F001
:102380008D819E81AF81B885880E991EAA1EBB1EC5
:1023900080922F0390923003A0923103B0923203C7
:1023A00081E0DF91CF911F910F91FF90EF90DF902F
:1023B000CF90BF90AF909F908F907F906F905F90E5
:1023C0004F9008958F929F92AF92BF92CF92DF92DB
:1023D000EF92FF920F931F93CF93DF93FC018185C0
:1023E0009285A385B4850196A11DB11D841795071B
:1023F000A607B70710F480E05CC083899489A5899B
:10240000B689C789C03129F4852E962EA72EBB2404
:1024100009C04A015B01C7E0B694A79497948794DA
:10242000CA95D1F7E9016A017B018F01BC01CD0199
:10243000680D791D8A1D9B1D8090000190900101FF
:10244000A0900201B0900301681579058A059B05EB
:1024500099F4F80187898031A9F4B701A6015527BD
:1024600066277727440F551FFA01E957FC4F8081F3
:102470009181A0E0B0E018C040E00E94F910811105
:10248000E8CFB9CFB701A6014F7755276627772741
:10249000440F551F440F551FFA01E957FC4F808127
:1024A0009181A281B381BF7088839983AA83BB8302
:1024B00081E0DF91CF911F910F91FF90EF90DF901E
:1024C000CF90BF90AF909F908F9008954F925F9262
:1024D0006F927F92AF92BF92CF92DF92EF92FF9274
:1024E0000F931F93CF93DF9300D000D0CDB7DEB70B
:1024F0008C0149835A836B837C835901C12CD12C75
:102500007601412C82E0582E612C712C49815A8130
:102510006B817C819E012F5F3F4FC8010E94E211B9
:10252000882351F1D301C201F801058404C0880F4A
:10253000991FAA1FBB1F0A94D2F7C80ED91EEA1E04
:10254000FB1E49815A816B817C818789803129F00A
:1025500088EF9FEFAFEFBFE004C088EF9FEFA0E0F0
:10256000B0E0481759076A077B0780F2F501C0827F
:10257000D182E282F38281E00F900F900F900F9052
:10258000DF91CF911F910F91FF90EF90DF90CF904F
:10259000BF90AF907F906F905F904F900895CF93D2
:1025A000DF93EC018D818823A1F18C8187FF2DC001
:1025B0006E857F858889998941E00E94F91088237A
:1025C00041F1EA8980E2E89FF0011124DF01A95777
:1025D000BC4F1097F1F08D81823050F44B895C89AB
:1025E0006D897E895C964D935D936D937C935F9727
:1025F0008F89988DA98DBA8DE957FC4F938F828F63
:10260000B58BA48B8C818F778C83DF91CF910C94C9
:10261000BE1080E0DF91CF9108952F923F924F92AC
:102620005F926F927F928F929F92AF92BF92CF9262
:10263000DF92EF92FF920F931F93CF93DF9300D01F
:1026400000D0CDB7DEB78C015B011A01DC01159615
:102650008C9115978130C9F414968C9181FF15C027
:1026600082FF1BC0F8014389548965897689828578
:102670009385A485B58584179507A607B70769F0E4
:10268000C8010E94A118811108C081E090E0F80102
:102690009383828380E090E039C1610183C0D801D7
:1026A0005B968D919C915C97FC01248121502A01BD
:1026B0003B0139E076946794579447943A95D1F763
:1026C000722E74207A01F1E0FF22772009F476C09F
:1026D00080E092E08E199F0946018C159D0508F453
:1026E0004C01D8015B962D913C915C9716968D918B
:1026F0009D910D90BC91A02D0297A109B109F901FE
:10270000058404C0880F991FAA1FBB1F0A94D2F723
:102710004685578560897189840F951FA61FB71F4D
:102720009C01AD01270D311D411D511D29013A01AB
:10273000811432E0930609F088C0809100019091E5
:102740000101A0910201B091030184159505A60530
:10275000B70559F48FEF9FEFDC0180930001909350
:102760000101A0930201B09303019501B301A201FD
:1027700080918705909188050E94961E882309F410
:1027800084CF9EEFB91AC818D908F80182859385BD
:10279000A485B585880D991DA11DB11D82879387DC
:1027A000A487B587D8011A964D915D916D917C9162
:1027B0001D97C114D10409F072CF87C0E114F10450
:1027C00009F086CF16964D915D916D917C91199788
:1027D000411551056105710559F457968D919D91EB
:1027E0000D90BC91A02D0097A105B10541F521C028
:1027F0009E012F5F3F4F0E94E211882309F44BCFC7
:1028000089819A81AB81BC81F801238D348DF901D6
:102810002789203129F048EF5FEF6FEF7FE004C098
:1028200048EF5FEF60E070E084179507A607B707F1
:1028300030F0C8010E94751A81114ACF26CFF801E5
:1028400086839783A087B18743CFE114F10429F5EC
:10285000D8011A964D915D916D917C911D9753967B
:102860008D919D910D90BC91A02D481759076A0735
:102870007B0798F00E94BE10882309F406CF40928F
:102880000001509201016092020170920301809157
:102890000E03816080930E0308C041E0C301B201C2
:1028A0000E94F910882309F4F0CED501F701E95709
:1028B000FC4FCF01880D991DE817F90719F02D91EC
:1028C0002193FACFA80CB91C5ECF53968D919D91A0
:1028D0000D90BC91A02D84179507A607B70740F46B
:1028E000F801438B548B658B768B8481806884835D
:1028F000D80114968C9183FD02C0C10107C0C801A4
:102900000E94CF12882309F4C0CEF7CF0F900F900A
:102910000F900F90DF91CF911F910F91FF90EF904B
:10292000DF90CF90BF90AF909F908F907F906F90EF
:102930005F904F903F902F900895CF93DF931F9219
:10294000CDB7DEB7698341E050E0BE016F5F7F4FD6
:102950000E940D130F90DF91CF9108958F929F9257
:10296000AF92BF92CF92DF92EF92FF92CF93DF931D
:10297000C82F88E296E09093880580938705CC2342
:1029800069F1C53010F080E00DC140E060E070E01A
:10299000CB010E94F9108823B1F320E1C29FC0014E
:1029A000112489589C4FFC01E254FE4F20812F775F
:1029B00051F73C96408151816281738144365105C3
:1029C0006105710500F33497C080D180E280F38007
:1029D000C114D104E104F10421F4D5CFC12CD12CD0
:1029E000760140E0C701B6010E94F910882359F230
:1029F00080919203909193038115924021F6A091CA
:102A00009703AA2309F4BFCF6091950370919603B1
:102A10006115710509F4B7CF20919403222309F4BD
:102A2000B2CFA09346062093380680E030E0E1E084
:102A3000F0E0C82FAF01082E02C0440F551F0A94C2
:102A4000E2F72417350741F0982F8F5F983089F708
:102A500089E08093410697CF8093410620919D03A2
:102A600030919E032115310519F040E050E008C077
:102A70002091AB033091AC034091AD035091AE0374
:102A80002093390630933A0640933B0650933C0618
:102A900046015701860E971EA11CB11C8092470665
:102AA00090924806A0924906B0924A06E091980397
:102AB000F0919903F0934D06E0934C06B0E00E942C
:102AC000F532860E971EA81EB91E80924E06909271
:102AD0004F06A0925006B092510685E0EE0FFF1F00
:102AE0008A95E1F7E150FE4FEF2FFF27E6958E0E16
:102AF0009F1EA11CB11C8092420690924306A09298
:102B00004406B092450620919A0330919B0321150B
:102B1000310521F0A90160E070E008C04091A703F1
:102B20005091A8036091A9037091AA03D701C6012F
:102B300088199909AA09BB09840F951FA61FB71FF9
:102B400004C0B695A79597958795CA95D2F78093B7
:102B50003D0690933E06A0933F06B0934006853F06
:102B60002FE09207A105B10510F48CE018C0853F55
:102B70009F4FA105B10510F480E111C08091B3030E
:102B80009091B403A091B503B091B60380934E0623
:102B900090934F06A0935006B093510680E2809325
:102BA0004B0681E0DF91CF91FF90EF90DF90CF90C7
:102BB000BF90AF909F908F9008952F923F924F9229
:102BC0005F926F927F928F929F92AF92BF92CF92BD
:102BD000DF92EF92FF920F931F93CF93DF93CDB7C6
:102BE000DEB7C756D1090FB6F894DEBF0FBECDBF12
:102BF0005C014B01A6964FAFA6973E018EE1680E91
:102C0000711C62E576E0C3010E94011F1C821B82D9
:102C100082E491E09A8389831E827401FE013196D9
:102C20006F0123011F016FE270E0C7010E94452F71
:102C30000097F1F1F70120812F3221F4FFEFEF1A15
:102C4000FF0AF1CF8E198D3008F08CE0082F10E0CC
:102C5000A801B701CE01885A9F4F0E94572FE8E57F
:102C6000F0E0EC0FFD1FE00FF11F1082C6010E9483
:102C7000691A21E0AE01485A5F4FB201C6010E94B5
:102C8000781B81110AC01EAE1DAE82E491E09CAF9C
:102C90008BAF21961FAE219717C0E00EF11EC20127
:102CA0000E94691A942D852D2601C92ED82EBBCFDE
:102CB000C70188199909A8969FAF8EAFA897B2014E
:102CC000CE01CB960E94011FA896EEADFFADA8974E
:102CD0008E0E9F1EF4018081811109C0BE01655CCA
:102CE0007F4FC1010E94011F4AE552E04BC019A26B
:102CF00018A282E491E09F8F8E8F1BA221968FAD48
:102D00002197811113C0F5011382128288EE93E09E
:102D1000A0E0B0E084839583A683B78382E291E04C
:102D200091838083128E118E148630C08250A696B5
:102D30002FADA697A401823040F462E576E0C3018E
:102D40000E94781B81110DC0DECFBE01655C7F4FF4
:102D5000C3010E94781B8823B1F2CE01CB960E945A
:102D6000691AA6968FADA697867039F049A95AA917
:102D70006BA97CA9C3010E94A118B301C1010E94E3
:102D8000011FA401B101C5010E940606C501C95970
:102D9000DF4F0FB6F894DEBF0FBECDBFDF91CF91EE
:102DA0001F910F91FF90EF90DF90CF90BF90AF9069
:102DB0009F908F907F906F905F904F903F902F905B
:102DC00008952091860390918503213208F04AC02E
:102DD000809162038111FCCF32E03093620331E0D5
:102DE000309361033FEF3093600310925F032093B1
:102DF0005E03A5E6B3E04EE353E0FA013E2F341B39
:102E0000321718F43D913193F9CF10923D03209180
:102E10003D03990F922B90933D0390913C03913089
:102E200061F410923C0390913D039093BB0090910C
:102E3000BC0093FDF8CF95EC01C095EE9093BC00DB
:102E4000909162039230E1F3909160039F3F79F09B
:102E500080916003803241F080916003803331F0D3
:102E600084E005C081E003C082E001C083E01092ED
:102E7000640310928603109263030895AF92BF9289
:102E8000CF92DF92EF92FF920F931F93CF93DF9336
:102E90005C016B017A01CDE7D6E008EE13E02EE786
:102EA00036E046E06BE388810E94670F298130E0BD
:102EB000322F22278A81282BF501318320838B81B1
:102EC00090E0982F88272C81822BF60191838083B4
:102ED0008D8190E0982F88272E81822BF701918396
:102EE0008083DF91CF911F910F91FF90EF90DF9042
:102EF000CF90BF90AF900895CF92DF92EF92FF9264
:102F00000F931F93CF93DF9377FF1DC06A017B015F
:102F1000EC016DE20E9464228C0144275527BA011E
:102F20004C195D096E097F092AE0CE010E94E82153
:102F3000800F911FDF91CF911F910F91FF90EF9024
:102F4000DF90CF9008952AE0DF91CF911F910F91EC
:102F5000FF90EF90DF90CF900C94E8217F928F92BA
:102F60009F92AF92BF92CF92DF92EF92FF920F9318
:102F70001F93CF93DF93CDB7DEB7C456D1090FB6F9
:102F8000F894DEBF0FBECDBF6C011EAE1DAE82E455
:102F900091E09CAF8BAF21961FAE219719A218A28A
:102FA0009F8F8E8F1BA2812C712C7E018BE3E80EEC
:102FB000F11C02E516E082E4A82E81E0B82E282D4F
:102FC000372DF601E20FF31F80818F3211F42F5F4E
:102FD0003F4FFE01E85AFF4F80E090E0D601A20F7C
:102FE000B31F4C914F3249F0442339F001962F5FC3
:102FF0003F4F41938C30910589F7E8E5F0E0EC0F05
:10300000FD1FE80FF91F1082F601E20FF31F808108
:103010008F3211F42F5F3F4F822E732EF601E20F95
:10302000F31F90801C821B82BA82A9821E8221E03B
:10303000AE01485A5F4FB801CE0101960E94781B3D
:10304000882339F0CE0101960E94691A91100AC0B6
:1030500021C086E00235180719F0C8010E94691ADC
:1030600080E027C021E0AE01485A5F4FB801C70198
:103070000E94781B982E86E002351807A1F0C8013F
:103080000E94691A992061F3902F812F8701E92E00
:10309000F82E95CF86E00235180719F0C8010E9476
:1030A000691A81E006C09920D9F28E01025E1F4F95
:1030B000EBCFCC59DF4F0FB6F894DEBF0FBECDBFBC
:1030C000DF91CF911F910F91FF90EF90DF90CF9004
:1030D000BF90AF909F908F907F900895DC0159969C
:1030E000ED91FC915A973097B9F083899489A5891D
:1030F000B6894285538564857585841B950BA60B1F
:10310000B70B811520E89207A105B10538F08FEFC4
:103110009FE7A0E0B0E0089580E090E00895FC0112
:10312000818D928D009711F00C94CF120895FC01BF
:10313000818D928D009711F00C943B068FEF9FEFDD
:1031400008958F929F92AF92BF92CF92DF92EF92AB
:10315000FF920F931F93CF93DF93EC018D81811129
:1031600002C080E077C00B891C892D893E89041735
:10317000150726073707A8F36A017B01823029F477
:10318000CA86DB86EC86FD860DC0C114D104E1043D
:10319000F10451F41E821F82188619861A861B8636
:1031A0001C861D8681E056C08A849B84AC84BD84C5
:1031B000EB8DFC8D258530E0275F3F4FB501A401E5
:1031C0004150510961097109022E04C07695679535
:1031D000579547950A94D2F7D701C6010197A109DF
:1031E000B10904C0B695A795979587952A95D2F70A
:1031F00084179507A607B70720F089288A288B2807
:1032000049F44F89588D698D7A8D4E835F83688725
:10321000798704C0841B950BA60BB70B4C015D018D
:103220008E010A5F1F4F81149104A104B10409F4B7
:10323000A7CF4E815F816885798598018B8D9C8DA4
:103240000E94E21191E0891A9108A108B108811148
:10325000EACF87CFDF91CF911F910F91FF90EF9031
:10326000DF90CF90BF90AF909F908F9008958F92F6
:103270009F92AF92BF92CF92DF92EF92FF920F9305
:103280001F93CF93DF9300D000D0CDB7DEB77C0182
:1032900080E2689F60011124960129573C4FD901B3
:1032A0001B969C91917121F0842F827409F097C034
:1032B000142FF701628B8091000190910101A09180
:1032C0000201B091030186879787A08BB18BF6012D
:1032D000E957FC4F4489558960E070E0BA015527F1
:1032E0004427D70157964D935D936D937C935A97DE
:1032F000828D938DA0E0B0E0482B592B6A2B7B2B5D
:10330000D70157964D935D936D937C935A97D9014E
:103310001B968C91887159F4848D958DA68DB78DEF
:10332000F701838B948BA58BB68B81E012C0803123
:1033300009F055C097012D5E3F4FD7015B968D91E7
:103340009C915C970E946612882309F448C084E02F
:10335000F7018583812F8F70D70114968C93149772
:10336000F70116821782108611861A961D921D92F9
:103370001D921C921D9716FF34C015968C918130BA
:1033800071F511FF2CC0F70143895489658976894D
:10339000452B462B472B09F461C040E050E0BA01B1
:1033A000C7010E94A1188823D1F0F7018788908C6B
:1033B000A18CB28CC38CD48C82E090E0A0E0B0E011
:1033C000F60180839183A283B3839E012F5F3F4FD9
:1033D000B501A401C6010E94E211811104C080E080
:1033E0003DC081E03BC000E010E09801B501A401C0
:1033F000C6010E944211882391F389809A80AB8094
:10340000BC80D60157968C91803129F088EF9FEFD0
:10341000AFEFBFE004C088EF9FEFA0E0B0E08816F8
:103420009906AA06BB0688F2D70157961D921D92EF
:103430001D921C925A97F701138A148A158A168ACC
:10344000848180688483C7010E94CF12882339F267
:1034500040E050E0BA01C7010E94A1180F900F9000
:103460000F900F90DF91CF911F910F91FF90EF90F0
:10347000DF90CF90BF90AF909F908F9008950F9363
:103480001F93CF93DF93FC01818D928D0097B9F04C
:10349000EF010E943B068C010F3F8FEF180791F060
:1034A000898D9A8DFC0142855385648575854150CF
:1034B0005109610971090E94A118C80105C080E085
:1034C00090E002C08FEF9FEFDF91CF911F910F919E
:1034D0000895CF93DF93EC010E94CF12882311F05F
:1034E0001D8281E0DF91CF9108953F924F925F92CC
:1034F0006F927F928F929F92AF92BF92CF92DF9204
:10350000EF92FF920F931F93CF93DF93CDB7DEB768
:103510002C970FB6F894DEBF0FBECDBF5C01DC0167
:103520005B968D909C905C971696CD90DD90ED907B
:10353000FC901997C114D104E104F10439F0BFEFF4
:10354000CB1ADB0AEB0AFB0A312C07C0F401C0805E
:10355000D180E280F38033243394F4018185928515
:10356000A385B4859C01AD012F5F3F4F4F4F5F4F47
:1035700029873A874B875C87260137011D821E8287
:103580001F821886F40181859285A385B4852D81DB
:103590003E814F815885281739074A075B0708F095
:1035A00063C089859A85AB85BC858C159D05AE0564
:1035B000BF0550F482E0C82ED12CE12CF12C92E012
:1035C000492E512C612C712C9E012F5F3F4FB7016A
:1035D000A601C4010E94E211882309F445C0898133
:1035E0009A81AB81BC81892B8A2B8B2B41F02601E0
:1035F00037019FEF491A590A690A790A05C0C414AC
:10360000D504E604F70491F02D813E814F81588561
:103610002F5F3F4F4F4F5F4F2D833E834F83588720
:103620003FEFC31AD30AE30AF30AACCF0FEF1FEF41
:103630002FEF3FE0B301A201C4010E944211882391
:1036400099F0D50116964D915D916D917C911997E8
:10365000411551056105710549F093018201C401CD
:103660000E944211811102C080E02AC0D501169645
:103670004D925D926D927C921997332051F0D30157
:10368000C2010196A11DB11DF40180839183A28323
:10369000B383F5018789908DA18DB28D892B8A2BFB
:1036A0008B2B69F4D50157964D925D926D927C9269
:1036B0005A9714968C911497806814968C9381E095
:1036C0002C960FB6F894DEBF0FBECDBFDF91CF9121
:1036D0001F910F91FF90EF90DF90CF90BF90AF9030
:1036E0009F908F907F906F905F904F903F90089544
:1036F0004F925F926F927F929F92AF92BF92CF92C2
:10370000DF92EF92FF920F931F93CF93DF93CDB78A
:10371000DEB72B970FB6F894DEBF0FBECDBF7C018E
:10372000DC011596AC90A1108AC1FE0131966F01A3
:1037300090E28BE08E0F91938E13FDCFDA0130E093
:1037400087E09D91992339F19E3219F0E3ECF2E084
:103750000AC08A3009F474C138E08AE0F2CF3196A9
:10376000491709F46DC144914111F9CF831708F449
:1037700067C14FED490F4E3508F062C141E0430F7C
:10378000F601E30FF11D3FE9390F3A3108F4905289
:103790009083342FD6CF8981803209F451C1B22E63
:1037A0008B01DB015B968D919C915C97F701948F67
:1037B000838F16961D921D921D921C921997FB01E4
:1037C0001286138614861586712CF80182859385DE
:1037D000A485B585438954896589768984179507B9
:1037E000A607B70708F061C025E0B695A79597959D
:1037F00087952A95D1F7F82FFF706F2ED80115966F
:103800008C91823008F41CC1C8010E943B0697FDD0
:1038100017C1F80182859385A485B5854F96A11DB2
:10382000B11D82879387A487B587F0E26F9EC001A0
:103830001124BC0169577C4F6115710509F400C161
:10384000DB012C91222319F0253EC1F427C0711011
:103850000EC0F701628A4091000150910101609110
:1038600002017091030146875787608B718BFC01C1
:10387000E957FC4F8081811113C015C04BE050E027
:10388000C6010E94282F892B09F09FCF8B2D8073B2
:10389000803309F4D5C04B2D662DCCC07720C9F2FA
:1038A0007724739492CF772473948B2D8271823115
:1038B00009F0C6C07720D1F0D7011E966D917D9199
:1038C0008D919C91519741E00E94F910882309F451
:1038D000B7C0F7016289F0E26F9FB0011124695708
:1038E0007C4F6115710509F079C0AAC0D801159601
:1038F0008C91823009F4A4C0C8010E94751A8823F3
:1039000009F49EC0D8015B96ED91FC915C971696E8
:103910004D905D906D907C901997B2E04B1A5108D4
:1039200061087108058404C0440C551C661C771C92
:103930000A94D2F786859785A089B189480E591EC9
:103940006A1E7B1E9480E1E04E1A510861087108DE
:10395000992009F10E94BE10882309F471C0E7E89C
:10396000F3E0119225E0E738F207D9F7D301C2015D
:10397000890D911DA11DB11D80930001909301013E
:10398000A0930201B093030180910E0381608093A4
:103990000E039A94DDCFD8015B96ED91FC915C9774
:1039A00080E092E0A0E0B0E0058404C0880F991F99
:1039B000AA1FBB1F0A94D2F7F8014389548965896D
:1039C0007689840F951FA61FB71F838B948BA58BB9
:1039D000B68BD70152961C9267E873E080E2FB0138
:1039E00011928A95E9F78BE0F601DB0101900D92C7
:1039F0008A95E1F781E298E2DB0151969C938E93E0
:103A0000509720E038E01F963C932E931E975396D4
:103A10009C938E93529759969C938E935897579652
:103A20003C932E9356970E94BE10882349F04B2D4D
:103A3000F7016289C7010E943719A82E01C0A12C85
:103A40008A2D2B960FB6F894DEBF0FBECDBFDF9147
:103A5000CF911F910F91FF90EF90DF90CF90BF908B
:103A6000AF909F907F906F905F904F9008958FB729
:103A7000F8948091FB068FBF089561E0FC0184817A
:103A80000E94F00D8091FA0681111092FA060895B5
:103A90008EBD00000DB407FEFDCF8EB508958FEFEB
:103AA0000C94481D0F931F93CF93DF93EB010E945B
:103AB000110F8B010E944F1D8F3F49F00E94110F83
:103AC000601B710B6C177D07A8F380E001C081E0DB
:103AD000DF91CF911F910F910895CF93DF93EC0168
:103AE0008E81882389F08F8198859C012F5F3F4FBD
:103AF00038872F838230924018F40E944F1DF3CFF5
:103B0000CE010E943D1D1E82DF91CF9108958CBD94
:103B10009DBD0895CF93DF93EC018091FA0681114A
:103B200009C081E08093FA068091260690912706CD
:103B30000E94871D60E08C81DF91CF910C94F00D85
:103B4000CF92DF92FF920F931F93CF93DF9300D01A
:103B500000D0CDB7DEB76C01F62E29833A834B83B4
:103B60005C830E946D1DC6010E948A1D6CE271E09B
:103B7000C6010E94521D8F2D80640E94481D08E1DD
:103B800010E05C814B813A812981DA01C901002E64
:103B900004C0B695A795979587950A94D2F729837F
:103BA0003A834B835C830E94481D08501109298188
:103BB0003A814B815C81083F8FEF180731F7FF2076
:103BC00029F0E8E0FE1204C087E803C085E901C0DF
:103BD0008FEF0E94481D10E00E944F1DF601828762
:103BE00087FF04C01F3F11F01F5FF6CF0F900F90AB
:103BF0000F900F90DF91CF911F910F91FF90DF9069
:103C0000CF900895AF92BF92CF92DF92EF92FF9242
:103C10000F931F93CF93DF93EC016901C801820FCB
:103C2000931F8130924008F070C08E81882371F01C
:103C300088819981AA81BB81481759076A077B0748
:103C400029F48F819885C816D906B0F54883598321
:103C50006A837B838B85833039F089E0440F551F5D
:103C6000661F771F8A95D1F79A01AB0161E1CE01FA
:103C70000E94A01D882319F083E08D8346C00E9416
:103C8000110F5B010E944F1D8A878F3F49F40E94EC
:103C9000110F6A197B096D327140A0F38FE003C0E8
:103CA0008E3F31F08DE08D83CE010E943D1D2DC0F1
:103CB00018861F8281E08E838F8198858C159D05E3
:103CC00040F40E944F1D8F819885019698878F83BD
:103CD000F3CF6701E00EF11ECE14DF0431F00E9435
:103CE0004F1DF60181936F01F7CF8F819885080FE3
:103CF000191F18870F838985882319F00115124031
:103D000048F0CE010E946D1D05C0CE010E943D1DF0
:103D100080E001C081E0DF91CF911F910F91FF9072
:103D2000EF90DF90CF90BF90AF900895EF92FF9209
:103D30000F931F93CF93DF93EC0179014115510548
:103D40006105710511F482E13CC08B85833039F047
:103D500089E0440F551F661F771F8A95D1F79A0196
:103D6000AB0168E1CE010E94A01D882311F084E020
:103D700028C08EEF0E94481D87018EEFF81AF801C7
:103D800081918F010E94481D0E151F05C1F78FEF0D
:103D90000E94481D8FEF0E94481D0E944F1D8A8778
:103DA0008F71853031F081E18D83CE010E943D1D00
:103DB00009C068E572E0CE010E94521D811107C062
:103DC00085E18D83CE010E943D1D80E013C020E07F
:103DD00030E0A9016DE0CE010E94A01D811104C058
:103DE0000E944F1D882311F084E1EBCFCE010E9489
:103DF0003D1D81E0DF91CF911F910F91FF90EF90DA
:103E00000895FC01DB0112968D919C911397938389
:103E1000828382E491E09183808314968C9114973D
:103E2000848315968C911597858316964D915D9197
:103E30006D917C91199746835783608771871A9695
:103E40004D915D916D917C911D9742875387648759
:103E500075871E964D915D916D917C915197468726
:103E60005787608B718B52968C915297828B5396A9
:103E70004D915D916D917C915697438B548B658BE1
:103E8000768B57964D915D916D917C915A97478BAA
:103E9000508F618F728F5B968D919C915C97948F00
:103EA000838F0895CF93DF93EC01898D9A8D0097CE
:103EB00041F00E94691A898D9A8D0E94C12D1A8E37
:103EC000198EDF91CF9108950895CF92DF92EF92EE
:103ED000FF920F931F93CF93DF936C017A018B01B5
:103EE000C0E0D0E0CE15DF0589F0D8016D918D01DD
:103EF000D601ED91FC910190F081E02DC60109956C
:103F0000892B11F47E0102C02196ECCFC701DF910D
:103F1000CF911F910F91FF90EF90DF90CF90089578
:103F20000F931F93CF93DF93EC010E94110F6887CB
:103F300079878A879B87E881F9810084F185E02D64
:103F4000CE01099597FF17C00E94110F08851985AA
:103F50002A853B85DC01CB01801B910BA20BB30BA7
:103F60000C811D812E813F8180179107A207B30725
:103F700010F38FEF9FEFDF91CF911F910F91089575
:103F8000CF93DF93EA0191E09093630380938503DD
:103F9000109264031092860381E796E00E94430327
:103FA000688181E796E00E9443030E94E11691E058
:103FB000811190E0892FDF91CF910895AF92BF9248
:103FC000CF92DF92EF92FF921F93CF93DF9300D0B7
:103FD00000D0CDB7DEB75C01C5010E94901FFC0187
:103FE00097FD0FC08D32910581F0C0970A9768F058
:103FF000D501ED91FC910680F781E02DC501099571
:10400000EBCF60E070E0CB014AC020E030E0A901D6
:1040100010E0E130F105E9F0ED32F105C9F0CF0132
:10402000C0970A97B0F4AAE0B0E00E94F5326F01A1
:10403000FF0FEE08FF08DC01CB018C0D9D1DAE1DAE
:10404000BF1D9C01AD01205331094109510901C037
:1040500011E0D501ED91FC910680F781E02DC501BD
:1040600029833A834B835C830995C5010E94901F85
:10407000FC01C09729813A814B815C810A9748F203
:10408000E130F10531F2112341F066277727CB01AA
:10409000621B730B840B950B02C0CA01B9010F9010
:1040A0000F900F900F90DF91CF911F91FF90EF90A5
:1040B000DF90CF90BF90AF900895FC010190002059
:1040C000E9F731979F01281B390BE0919C06F0918D
:1040D0009D06E21BF30B4091980650919906E41758
:1040E000F50730F46091960670919706E60FF71F7A
:1040F000280F391F60919A0670919B06DC01821788
:10410000930758F40196BC91A081BA1308C0319668
:10411000E617F70799F7FA01F1CF81E0089580E0FB
:104120000895CF93DF93C0910107D0910207E881F2
:10413000F9810480F581E02DCE0109951816190644
:1041400044F4E881F9810680F781E02DCE010995DC
:10415000EECFDF91CF910895FC018081918100978E
:1041600011F00C94892F60E070E0CB010895AF92BC
:10417000BF92CF92DF92EF92FF920F931F93CF9354
:10418000DF93DC01CD90DC901197C114D10409F4C8
:1041900042C01496CD91DC9115972097E1F18C01E6
:1041A00056017501BFEFAB1ABB0AF7018081082EDB
:1041B000000C990B0E94B02F892B99F72197CC0DF9
:1041C000DD1D8881082E000C990B0E94B02F892BD1
:1041D00091F4AE014F5F5F4F4E195F09D8011596FC
:1041E0005C934E931497CE14DF0450F4B701C601CC
:1041F0000E94352F05C0CE15DF0558F32197E1CF7A
:10420000D801ED91FC91119714968D919C91159781
:10421000E80FF91F1082DF91CF911F910F91FF904E
:10422000EF90DF90CF90BF90AF9008950F931F93C2
:10423000CF93DF93EC0188819981009729F02A813F
:104240003B812617370788F48B016F5F7F4F0E94F1
:10425000592E009761F0998388831B830A832C81F0
:104260003D81232B11F4FC01108281E001C080E02C
:10427000DF91CF911F910F910895EF92FF920F93CD
:104280001F93CF93DF9300D0CDB7DEB78C01698346
:104290001A82FC01E480F580FFEFEF1AFF0AB701F4
:1042A0000E941621882381F0F801208131818481C8
:1042B0009581BE016F5F7F4F820F931F0E94502F29
:1042C000F801F582E48281E00F900F90DF91CF91A9
:1042D0001F910F91FF90EF900895CF93DF93EC0122
:1042E00088819981009711F00E94C12D198218824E
:1042F0001D821C821B821A82DF91CF910895EF925A
:10430000FF920F931F93CF93DF93EC017B018A0100
:10431000BA010E941621811104C0CE010E946D21B4
:1043200007C01D830C83B701888199810E94502F9B
:10433000CE01DF91CF911F910F91FF90EF900895E3
:10434000CF93DF93EC016115710559F0FB010190EA
:104350000020E9F73197AF01461B570B0E947F21E0
:1043600002C00E946D21CE01DF91CF910895CF93BD
:10437000DF93EC01FB018617970761F06081718183
:104380006115710529F0448155810E947F2102C089
:104390000E946D21CE01DF91CF910895FC018081B3
:1043A00091810C94C12DFC01118210821382128222
:1043B000158214826115710551F0FB0101900020F6
:1043C000E9F73197AF01461B570B0C947F210895F5
:1043D0004F925F926F927F92EF92FF920F931F9393
:1043E000CF93DF93CDB7DEB7A1970FB6F894DEBFBA
:1043F0000FBECDBF7C01FA01CB0119A2223008F417
:104400002AE08E010F5D1F4F422E512C612C712C22
:10441000BF01A30192010E94D332F901CA010150E8
:1044200011096A3014F4605D01C0695CD8016C93B5
:10443000232B242B252B61F7B801C7010E943724B9
:10444000A1960FB6F894DEBF0FBECDBFDF91CF911E
:104450001F910F91FF90EF907F906F905F904F9022
:1044600008950F931F93CF93DF93EC010E9437249D
:104470008C0163E672E0CE010E943724800F911F09
:10448000DF91CF911F910F9108950F931F93CF93B9
:10449000DF93EC01E881F981DB0114964D915C9189
:1044A00015976D917C910280F381E02D09958C0127
:1044B00063E672E0CE010E943724800F911FDF91E6
:1044C000CF911F910F910895DC01ED91FC91019026
:1044D000F081E02D099480918C0690918D060E94C8
:1044E0003B0880918C0690918D06DC01ED91FC914A
:1044F0000284F385E02D09956AE080918C06909105
:104500008D060E94642280918C0690918D06DC01BC
:10451000ED91FC910680F781E02D0995CA9799F7F6
:1045200008950F931F93CF93DF938C010E946B220A
:10453000CCE8D6E063E5888199810E946422888175
:104540009981DC01ED91FC91D80114964D915C911B
:1045500015976D917C910280F381E02D09956AE0B9
:1045600088819981DF91CF911F910F910C946422E2
:104570000C943724EF92FF920F931F93CF93DF9306
:104580008C017B01C0E0D0E0F701EC0FFD1F6491CE
:10459000662361F0D801ED91FC910190F081E02D4E
:1045A000C8010995892B11F02196EECFCE01DF913C
:1045B000CF911F910F91FF90EF9008950F931F934C
:1045C000CF93DF93EC010E94BA228C0163E672E084
:1045D000CE010E943724800F911FDF91CF911F9150
:1045E0000F9108958F929F92AF92BF92CF92DF92D8
:1045F000EF92FF920F931F93CF93DF93182F7B01BE
:10460000042F69010E94110F4B015C01C091010749
:10461000D0910207E881F9810480F581E02DCE0177
:104620000995892B09F46AC0E881F981002341F0DA
:104630000084F185E02DCE010995F70180831AC031
:104640000680F781E02DCE010995F70180838091E6
:10465000FD069091FE06A091FF06B091000701971C
:10466000A109B1098093FD069093FE06A093FF0671
:10467000B09300078091FD069091FE06A091FF0681
:10468000B0910007892B8A2B8B2B11F081E075C02C
:1046900065E070E080E090E00E94D70EE881F9814B
:1046A0000480F581E02DCE010995892B79F3E8810D
:1046B000F9810084F185E02DCE010995212F30E0AC
:1046C000205D3F4F8217930709F740E06CE572E0E9
:1046D00084EF91E00E946408059761F06CE172E05C
:1046E00089E895E00E94B8226BE173E089E895E0E3
:1046F0000E94DE2281E0F60180833FC00E94110FFC
:10470000DC01CB0188199909AA09BB09803D9740B2
:10471000A105B10508F47ECF6CE172E089E895E06F
:104720000E94B82262E173E089E895E00E94BA2213
:1047300065E272E089E895E00E94B8224091FD06AA
:104740005091FE066091FF067091000789E895E0A0
:104750000E947C1763E672E089E895E00E943724A6
:104760001092FD061092FE061092FF0610920007AE
:104770001092FC06F701108280E0DF91CF911F912B
:104780000F91FF90EF90DF90CF90BF90AF909F90F0
:104790008F900895EF92FF920F931F93CF93DF9323
:1047A00000D0CDB7DEB77C01162F072F6CE172E089
:1047B00089E895E049835A830E94B82264E073E057
:1047C00089E895E00E94BA2265E272E089E895E006
:1047D0000E94B822612F702F89E895E00E94312253
:1047E000ECE0F1E023E030E05A814981929182913E
:1047F000019621F021503109C8F72FEFF7012487E6
:104800002F3F21F15F934F930F931F931F922F938D
:1048100083E18F9388E88F9387EE92E09F938F9345
:104820000E94AD0A0FB6F894DEBF0FBECDBF892B34
:1048300099F4F701848590E0FC01EE0FFF1FEC5F17
:10484000FE4F9183808381E090E008C063ED72E0C9
:1048500089E895E00E94DE2280E090E00F900F90C2
:10486000DF91CF911F910F91FF90EF900895611507
:10487000710579F0FB0101900020E9F73197AF0154
:10488000461B570BDC01ED91FC910280F381E02D7A
:10489000099480E090E00895CF93DF93CDB7DEB721
:1048A000C555D1090FB6F894DEBF0FBECDBF7894C1
:1048B00084B5826084BD84B5816084BD85B5826025
:1048C00085BD85B5816085BD80916E0081608093D6
:1048D0006E0010928100809181008260809381003F
:1048E000809181008160809381008091800081604F
:1048F000809380008091B10084608093B1008091AA
:10490000B00081608093B00080917A0084608093D1
:104910007A0080917A00826080937A0080917A0098
:10492000816080937A0080917A00806880937A0019
:104930001092C100E0919905F0919A0582E0808380
:10494000E0919505F09196051082E0919705F09120
:1049500098058FEC80831092A105E0919D05F09160
:104960009E0586E08083E0919B05F0919C05808107
:1049700080618083E0919B05F0919C058081886037
:104980008083E0919B05F0919C0580818068808305
:10499000E0919B05F0919C0580818F7D8083109232
:1049A00067021092660210926403109286031092BE
:1049B000620381E08093610310923C0361E082E135
:1049C0000E94F00D61E083E10E94F00D8091B9003A
:1049D0008E7F8093B9008091B9008D7F8093B9005C
:1049E00088E48093B80085E48093BC0063E471E0C0
:1049F00089E895E00E94DE228FE190E00E942C2D54
:104A00008C0120E044E063E00E94450710938D068E
:104A100000938C06D8015B961C921E925A97599669
:104A20001C921E92589757961C921E9256978DE98B
:104A300091E05D969C938E935C971C968C911C974D
:104A4000863108F050C02DEB30E057963C932E9302
:104A500056972BE931E059963C932E9358972CE2C8
:104A600031E05B963C932E935A97209168008830F2
:104A700050F031E08E3008F430E091E001C0990F41
:104A80003A95EAF701C094E0922B90936800883041
:104A900028F08E3030F02CE630E005C02DE630E016
:104AA00002C02BE630E0F801348B238B883030F4E1
:104AB00091E001C0990F8A95EAF70EC0282F30E0E7
:104AC0008E3018F42850310902C02E50310991E07F
:104AD00001C0990F2A95EAF7D80155969C938DE964
:104AE00091E00197F1F7C8010E943B086AE08091CC
:104AF0008C0690918D060E94642280918C06909184
:104B00008D06DC01ED91FC910680F781E02D099581
:104B1000CA9799F76AE070E080E090E00E94D70EB3
:104B200080918C0690918D06DC01ED91FC910284C0
:104B3000F385E02D09950E946B2288E080938F0613
:104B40006EE480918C0690918D060E9464224091C3
:104B50008F0650E060E070E02AE080918C06909132
:104B60008D060E94E8216AE080918C0690918D0666
:104B70000E94642280918C0690918D06DC01ED915B
:104B8000FC910680F781E02D0995CA9799F70E945C
:104B90006B228AE08093900666E580918C06909166
:104BA0008D060E94642240919006042E000C550B45
:104BB000660B770B80918C0690918D060E947C1776
:104BC0006AE080918C0690918D060E94642280910B
:104BD0008C0690918D06DC01ED91FC910680F781A9
:104BE000E02D0995CA9799F767E271E089E895E0A9
:104BF0000E94DE2201E023E042E06BE680917D0628
:104C00000E946D1000E022E044E06BE180917D069F
:104C10000E946D1022E044E06CE180917D060E94CC
:104C20006D10F0907D0608EE13E09E012F5F3F4F60
:104C300041E06BE68F2D0E94670F99819F7B9983DE
:104C400066969FAF6697AE014B5A5F4F6BE68F2D0E
:104C50000E94C01F6AE770E089E895E00E94DE22AA
:104C60009E012F5F3F4F41E065E780917D060E94E6
:104C7000670F882339F089818E7790E09595879525
:104C800080937E0611E080917E06843321F010E04F
:104C90006EEB71E002C060EA71E089E895E00E9485
:104CA0003122111121C008EE13E09E012F5F3F4F0A
:104CB00041E065E780917D060E94670F882339F007
:104CC00089818E7790E09595879580937E0611E097
:104CD00080917E06843309F010E064EF71E080E09B
:104CE00090E00E94D70EDDCF68E670E089E895E09D
:104CF0000E94DE224DE652E061E772E085E792E035
:104D00000E943E1761E08AE00E943C0E66EF70E070
:104D100089E895E00E94BA2210923306109231067B
:104D200010922E0610922D068AE080932C060E9487
:104D3000110F8B0161E080912C060E943C0E61E016
:104D400080912C060E94F00DFFB6F89480916802C5
:104D5000811127C0E0ECF0E08491ECEAF0E094915E
:104D6000E82FF0E0EE0FFF1FE856FF4FA591B4913A
:104D7000EC91E92321F461E08AE00E94F00D61E00A
:104D80008AE00E943C0E8CB580618CBD8CB580643D
:104D90008CBD61E08DE00E943C0E61E08BE00E94E2
:104DA0003C0E809168028F5F80936802FFBE82E5AF
:104DB000809326061092270680912606909127065A
:104DC0000E94871D5AE0F52E8FEF0E94481DFA942D
:104DD000F110FACF88E296E00E948A1D20E030E0D0
:104DE000A90160E088E296E00E94A01DF82E809361
:104DF0003206E1E08E1749F00E94110F601B710B23
:104E0000613D774058F381E056C02AEA31E040E046
:104E100050E068E088E296E00E94A01D82FF03C097
:104E2000F092330610C044E0F42E0E944F1D809390
:104E30003206FA94F110F9CF8A3A11F082E03BC0C1
:104E400082E08093330680913306823021F0C12CBA
:104E5000D12C760105C0C12CD12CE12C30E4F32EED
:104E600020E030E0A90167E388E296E00E94A01DFF
:104E7000A701960169E288E296E00E94A01D809356
:104E80003206882349F00E94110F601B710B613DAF
:104E9000774030F388E00FC080913306823001F50F
:104EA00020E030E0A9016AE388E296E00E94A01DBC
:104EB000882341F086E080932D0688E296E00E94E8
:104EC0003D1D91C00E944F1D807C803C19F483E001
:104ED000809333060E944F1D0E944F1D0E944F1D5C
:104EE00088E296E00E943D1D80E5809326061092A0
:104EF000270681E00E94AE14882329F0809157068E
:104F0000882341F070C080E00E94AE14882309F429
:104F10006AC0F4CF80914B06803109F582E080931E
:104F200057061092690610926A0610926B0610924C
:104F30006C0680914C0690914D06A0E0B0E025E013
:104F4000880F991FAA1FBB1F2A95D1F7809365066A
:104F500090936606A0936706B09368061EC08032E1
:104F600009F041C083E08093570640914E0650916E
:104F70004F06609150067091510640936906509318
:104F80006A0660936B0670936C0625E636E084E350
:104F900096E00E946612882331F184E396E09093B4
:104FA0006E0680936D0681E0809356061092580637
:104FB0001092590610925A0610925B0610925C06E7
:104FC00010925D0610925E0610925F0610926006C7
:104FD00010926106109262061092630610926406A7
:104FE00061EE70E002C06AEC70E089E895E00E9432
:104FF000DE2286E0E8EFF1E0DE01DD9601900D9221
:105000008A95E1F71F8E1E8E88EE93E0A0E0B0E057
:1050100088A399A3AAA3BBA382E291E09D8F8C8F62
:105020001EAA1DAA18A663EE71E0CE01C7960E94C3
:10503000D321CE01CD960E94AE17882309F444C037
:1050400065E672E0CE01C7960E94A02141E0BE0154
:10505000635C7F4FCE0101960E94DD158B819C81A0
:105060009F8F8E8F8D819E81AF81B88588A399A3F4
:10507000AAA3BBA389859A85AB85BC858CA39DA378
:10508000AEA3BFA38DE0FE013D96DE019896019090
:105090000D928A95E1F78A8D9B8D9EAB8DABCE01EB
:1050A0004C960E946E18892B61F0CE014C960E949E
:1050B00097188A30A1F3682FCE01C7960E943D2130
:1050C000EECFCE014C9611C043E1BE01635C7F4F31
:1050D000CE0101960E94DD15BE01695C7F4FCE01B5
:1050E00001960E944522CE0101960E94521F6EE059
:1050F00071E089E895E00E94DE22BE01695C7F4F85
:1051000089E895E00E944522CE01C7960E94AC2016
:1051100070936A026093690264EF71E080E090E04E
:105120000E94D70ECE01C7960E94CE2161E080E199
:105130000E943C0E61E08FE00E943C0E61E08EE038
:105140000E943C0E60E085E00E943C0E60E086E03C
:105150000E943C0E60E087E00E943C0E6FEF70E022
:1051600080E10E94780E60E070E08FE00E94780E8F
:105170006FEF70E08EE00E94780E86E0F82E47E731
:1051800052E069E772E08BE792E00E943E17A0913F
:105190007B02B0917C028091750290917602AD0104
:1051A000481B590B57FF03C0519541955109509326
:1051B000740240937302E0917902F0917A02809137
:1051C0007102909172029F01281B390B37FF03C0B7
:1051D0003195219531093093700220936F026091CF
:1051E00077027091780280916D0290916E028B012E
:1051F000081B190BC80117FF03C0919581959109F0
:1052000090936C0280936B02413157423CF4213100
:10521000374224F4813197420CF4C5C269EB71E046
:1052200089E895E00E94DE2261E771E089E895E077
:105230000E94BA2263EE71E0CE018D5B9F4F0E9407
:10524000D321EEEFF1E0DE015C968F2D01900D92FF
:105250008A95E1F7CE014C960E94AE178823B9F1EA
:1052600041E0BE01645E7F4FCE0101960E94DD15D4
:10527000EA8DFB8D309709F449C08581882309F4B4
:1052800045C065E672E0CE018D5B9F4F0E94A02174
:10529000CE0101960E946E18892B69F0CE0101960D
:1052A0000E9497188A30A1F3682FCE018D5B9F4F23
:1052B0000E943D21EDCFBE016D5B7F4F89E895E0F7
:1052C0000E944522CE0101960E94521F1FC043E159
:1052D000BE01645E7F4FCE0101960E94DD15EA8D0E
:1052E000FB8D309799F08581882381F063EE71E022
:1052F000CE0101960E943122CE0101960E94521FDA
:105300006EE571E089E895E00E94DE2264EF71E0CD
:1053100080E090E00E94D70ECE018D5B9F4F0E94EF
:10532000B7201A8219821C821B821E821D82BE0136
:105330006D5B7F4FCE0101960E94B7210D811E81CA
:105340000C5F1F4FB801CE0101960E9416218823E1
:1053500009F448C229813A818D819E816FEF71E005
:10536000820F931F0E94502F1E830D83BE016F5F1B
:105370007F4FCE018D5B9F4F0E94B721CE010196DA
:105380000E94CE2163EA71E089E895E00E94BA228A
:10539000BE016D5B7F4F89E895E00E944522CE01FA
:1053A0008D5B9F4F0E94B72065E672E0CE01815B66
:1053B0009F4F0E94D32125966EAD7FAD259741E08A
:1053C000CE014C960E94DD15EDA9FEA9309709F497
:1053D000CCC08581882309F4C8C0CE014C960E94B8
:1053E0006E18892B69F0CE014C960E9497188A306E
:1053F000A1F3682FCE01815B9F4F0E943D21EDCF2D
:10540000CE014C960E94521F64EF71E080E090E064
:105410000E94D70E1EAE1DAE21961FAE1EAE219766
:1054200023961FAE1EAE2397BE016D5B7F4FCE014C
:10543000CD960E94B721CE01CD960E94AC208B0163
:105440000F5F1F4F18AE1FAA1AAE19AE1CAE1BAECF
:105450004AE0BE016F5F7F4FC8010E94B92FBE01B5
:105460006F5F7F4FCE01C7960E94A0218DAD9EAD8C
:10547000009789F02FA938AD2115310551F02196FB
:105480006EAD7FAD21974BAD5CAD6417750708F02D
:105490009FC10E94C12D8FA998AD9EAF8DAF89ADE0
:1054A0009AAD21969FAF8EAF21978BAD9CAD239681
:1054B0009FAF8EAF239718AE1FAA1AAE19AE1CAEBF
:1054C0001BAECE01C7960E94CE21EEEFF1E0DE01C9
:1054D000D7968F2D01900D928A95E1F7CE01C79650
:1054E0000E94AE17882381F041E0BE01695C7F4FC6
:1054F000CE0101960E94DD15BE01635C7F4FCE0197
:1055000001960E9445220EC043E1BE01695C7F4FB7
:10551000CE0101960E94DD1563EE71E0CE01019689
:105520000E943122CE0101960E94521F6DE871E067
:1055300089E895E00E94BA22A801110F660B770B4B
:1055400089E895E00E947C1763E672E089E895E0BF
:105550000E94372464EF71E080E090E00E94D70E53
:10556000CE01CD960E94CE2107C065EE71E0CE013E
:10557000815B9F4F0E94A021CE018D5B9F4F0E94B7
:10558000CE2164E670E080E090E00E94D70E2B967A
:105590001FAE1EAE2B972D961FAE1EAE2D972F96CB
:1055A0001FAE1EAE2F97BE01615B7F4FCE01875BA2
:1055B0009F4F0E94B72162EB71E089E895E00E945D
:1055C000BA22BE01675B7F4F89E895E00E944522C1
:1055D0001A8219821C821B821E821D82BE01675B99
:1055E0007F4FCE0101960E94B721CE0101960E9405
:1055F0009122CE0101960E94CE21E4E0F2E0DE018C
:10560000AD5BBF4F8F2D01900D928A95E1F7E4E0DD
:10561000F2E0DE01D7968F2D01900D928A95E1F789
:1056200065E672E0CE014C960E94D321CE01C7966A
:105630000E94AE17882321F141E0BE01695C7F4FD3
:10564000CE0101960E94DD15CE0101960E946E18D2
:10565000892B61F0CE0101960E9497188A30A1F340
:10566000682FCE014C960E943D21EECFCE014C9684
:105670000E94AC208B01CE0101960E94521F14C0E3
:1056800043E1BE01695C7F4FCE0101960E94DD15AA
:1056900063EE71E0CE0101960E943122CE010196A7
:1056A0000E94521F00E010E064EF71E080E090E0A3
:1056B0000E94D70ECE014C960E94CE21003D27E0DD
:1056C00012070CF04CC065E672E0CE01CD960E9448
:1056D000D321CE018D5B9F4F0E94AE17882349F1E5
:1056E00041E0BE016D5B7F4FCE0101960E94DD154A
:1056F00018AE1FAA1AAE19AE1CAE1BAE4AE0BE0110
:10570000645E7F4FC80101960E94B92FBE01645E9E
:105710007F4FCE01C7960E94A021BE01695C7F4FDA
:10572000CE0101960E944522CE01C7960E94CE214D
:105730000EC043E1BE016D5B7F4FCE0101960E941A
:10574000DD1563EE71E0CE0101960E943122CE019B
:1057500001960E94521FCE01CD960E94CE2164EF89
:1057600071E080E090E00E94D70ECE01875B9F4FF2
:105770000E94CE21CE01815B9F4F0E94CE2102E389
:1057800010E04DE652E061E772E085E792E00E94AA
:105790003E1764E670E080E090E00E94D70E015072
:1057A000110979F712C0B0937602A0937502F093B5
:1057B0007202E093710270936E0260936D0264EF67
:1057C00071E080E090E00E94D70E0E94210DD7CCBE
:1057D000B9010E94502F2BAD3CAD23963FAF2EAFA9
:1057E00023976DCECE0101960E946D21BFCDCF9340
:1057F000DF93C0918C06D0918D06209751F08EE8F2
:1058000091E099838883CE010E942508CE010E94F1
:10581000C12D89EC96E00E94CE218EE891E0909314
:10582000D0068093CF068FEC96E0DF91CF910C9459
:105830002508CF92DF92EF92FF920F931F93CF93A1
:10584000DF93EEE9F6E0CEE9D1E0D183C0831282A6
:10585000138214821582E9E8F5E01382128288EE41
:10586000C82E83E0D82EE12CF12CC482D582E682AA
:10587000F78282E391E09183808385EC90E09587C5
:10588000848784EC90E09787868780EC90E0918B0A
:10589000808B81EC90E0938B828B82EC90E0958BF7
:1058A000848B86EC90E0978B868B118E128E138EF4
:1058B000148EE6E2F6E080E580831182E8E2F6E00D
:1058C000158216821186138682E090E0A0E0B0E097
:1058D00084879587A687B78713A215A614A682E4A6
:1058E00091E093A782A717A6E4EFF6E0D183C083E7
:1058F000128213821482158206E916E080E290E09B
:10590000F8019183808381E290E00E942C2DF801C0
:10591000938382839C01205E3F4F3583248397834A
:10592000868321E2FC0111922A95E9F7E4EAF6E088
:10593000D183C0831282138214821582EAEAF6E0D0
:10594000D183C0831282138214821582E0EBF6E0C9
:10595000D183C0831282138214821582E6EBF6E0B3
:10596000D183C0831282138214821582E1E7F6E0AC
:1059700013821282C482D582E682F7828AE491E0A1
:1059800091838083EEEEF6E0D183C083128213828E
:105990001482158220E047E066E08FEC96E00E94DA
:1059A000450765E672E089EC96E00E94D321ECEBB6
:1059B000F6E013821282C482D582E682F78282E701
:1059C00091E0918380838FEF8487ECE8F6E0128288
:1059D0001382148288EC90E096838583178281E09D
:1059E0008087118688E680937D06DF91CF911F9195
:1059F0000F91FF90EF90DF90CF90089597FB072EC7
:105A000016F4009407D077FD09D00E94122D07FCF0
:105A100005D03EF4909581959F4F089570956195BE
:105A20007F4F0895AA1BBB1B51E107C0AA1FBB1FD4
:105A3000A617B70710F0A61BB70B881F991F5A951A
:105A4000A9F780959095BC01CD010895EE0FFF1F39
:105A50000590F491E02D0994CF93DF938230910566
:105A600010F482E090E0E0910507F091060720E055
:105A700030E0C0E0D0E0309711F14081518148170B
:105A80005907C0F04817590761F482819381209724
:105A900019F09B838A832BC0909306078093050798
:105AA00026C02115310519F04217530718F49A0141
:105AB000BE01DF01EF010280F381E02DDCCF211573
:105AC000310509F1281B390B2430310590F4129669
:105AD0008D919C9113976115710521F0FB019383C2
